:020000040800F2
:1000000000000220D9010008090400080B040008C0
:100010000D0400080F04000811040008000000008F
:1000200000000000000000000000000013040008B1
:100030001504000800000000170400081904000857
:1000400029020008290200082902000829020008E4
:1000500029020008290200082902000829020008D4
:1000600029020008290200082902000829020008C4
:1000700029020008290200082902000829020008B4
:1000800029020008290200082902000800000000D7
:10009000000000000000000000000000290200082D
:1000A0002902000829020008290200082902000884
:1000B0002902000829020008290200082902000874
:1000C0002902000829020008290200082902000864
:1000D0002902000829020008290200080000000087
:1000E0001D04000829020008290200080000000081
:1000F00000000000000000000000000029020008CD
:100100000000000029020008290200082902000856
:1001100000000000000000000000000000000000DF
:100120002902000829020008290200082902000803
:10013000290200080000000000000000000000008C
:10014000000000000000000000000000290200087C
:1001500029020008290200082902000829020008D3
:100160002902000829020008000000000000000029
:10017000000000000000000000000000000000007F
:10018000000000002902000800000000000000003C
:08019000290200082902000801
:1001980010B5054C237833B9044B13B10448AFF3B9
:1001A80000800123237010BD3404002000000000EB
:1001B800B405000808B5034B1BB103490348AFF366
:1001C800008008BD0000000038040020B4050008C5
:1001D800DFF834D0002103E00C4B5B584350043166
:1001E8000B480C4B42189A42F6D30B4A02E0002304
:1001F80042F8043B094B9A42F9D300F01BF900F08E
:100208003FF900F0EDF8704700000220DC05000817
:10021800000000203404002034040020740400206E
:10022800FEE7000082B01F4B1A6842F004021A6011
:100238001B6803F004030193019B1B4B1A6822F00F
:1002480040621A601A6822F040621A6003F540534F
:100258005A6C42F480425A645B6C03F48043009306
:10026800009B12484369F02292FAA2F2B2FA82F293
:1002780023F0F003022101FA02F2134343610C4B0D
:100288001A6842F400521A60DA6842F40052DA60DE
:10029800084B4FF480721A60043B002283F828232D
:1002A80002B0704730380240000802400038014070
:1002B800003C014004E100E010B483B0124B1A6B1B
:1002C80042F001021A631B6B03F001030193019BC7
:1002D8000E480268202393FAA3F1B1FA81F193FA48
:1002E800A3F3B3FA83F34900032404FA01F122EAE1
:1002F80001025B00012101FA03F31343036003B019
:100308005DF8044B704700BF00380240000002400F
:100318002A4B1A6842F480221A601A6842F4803222
:100328001A601A46136813F4003FFBD0244A136876
:1003380023F00F0343F003031360204B5A6821494D
:100348001140214A0A435A605A6822F4403242F462
:1003580080325A601A6842F080721A601A4613682E
:1003680013F0007FFBD0154A936823F0F0039360E5
:10037800936823F0030343F002039360936803F048
:100388000C03082BFAD10D4A936823F4E05343F485
:1003980080539360936823F4604393600B4B0C4A3B
:1003A8005A600C4AF02182F8231000229A60072232
:1003B8001A60094B094A1A60704700BF00380240AA
:1003C800003C02400080BFFF0864400010E000E0ED
:1003D8009F86010000ED00E00000002000E1F50527
:1003E80008B5FFF795FFFFF767FFFFF71BFFFEE76D
:1003F800024A536983F020035361704700000240AA
:100408007047FEE7FEE7FEE7FEE770477047704774
:100418007047000008B5064B5B6913F4005F00D114
:1004280008BD034B4FF400525A61FFF7E1FFF7E7AD
:10043800003C01400F49D1F8883043F47003C1F8FB
:1004480088300D4B1A6842F001021A60002098604B
:100458001A6822F0847222F480321A60074A5A60BD
:100468001A6822F480221A60D8604FF000638B600B
:10047800704700BF00ED00E0003802401030002453
:1004880070B50D4E0D4D761BB61006D00024013404
:1004980055F8043B9847A642F9D1094E094D761BF9
:1004A80000F084F8B61006D00024013455F8043B57
:1004B8009847A642F9D170BDD0050008D0050008BC
:1004C800D8050008D0050008024B13B1024800F017
:1004D80005B8704700000000F10400080023014639
:1004E8001A46184600F01EB838B50A4C0A4D641B67
:1004F800A4100AD004F18043013B05EB8305013CBD
:1005080055F804399847002CF9D1BDE8384000F077
:1005180053B800BFDC050008D8050008704700BFC5
:10052800704700BF2DE9F0411E4C054620689046F3
:100538001F460E46FFF7F2FF1B4B1A68D2F84831E8
:1005480033B35A6820681F2A27DC4DB9911C013241
:100558005A6043F82160FFF7E3FF0020BDE8F0810F
:1005680003EB82010124C1F8888004FA02FED3F863
:100578008841022D44EA0E0CC3F888C1C1F80871FD
:10058800E4D1D3F88C114EEA0104C3F88C41DDE7BD
:1005980002F5A673C2F84831D3E7FFF7C1FF4FF061
:1005A800FF30DBE730040020CC050008F8B500BFB9
:1005B800F8BC08BC9E467047F8B500BFF8BC08BC3C
:0405C8009E46704794
:0405CC000800002003
:0805D000D1040008BD01000880
:0405D800990100087D
:1005DC000024F4000000000000000000F4020020E1
:1005EC005C030020C4030020000000000000000099
:1005FC0000000000000000000000000000000000EF
:10060C0000000000000000000000000000000000DE
:10061C0000000000000000000000000000000000CE
:10062C0000000000000000000000000000000000BE
:10063C0000000000000000000000000000000000AE
:10064C00000000000000000000000000000000009E
:10065C00000000000000000000000000000000008E
:10066C00000000000000000000000000000000007E
:10067C00000000000000000000000000000000006E
:10068C0001000000000000000E33CDAB34126DE60B
:10069C00ECDE05000B000000000000000000000074
:1006AC00000000000000000000000000000000003E
:1006BC00000000000000000000000000000000002E
:1006CC00000000000000000000000000000000001E
:1006DC00000000000000000000000000000000000E
:040A0C005004002072
:04000005080001D915
:00000001FF
